:020000040800F2
:10000000480A0020A5010008CB1F0008311E000887
:10001000C91F000847070008352800080000000035
:10002000000000000000000000000000192200088D
:100030004907000800000000CD1F00081B2200082F
:10004000BF010008BF010008BF010008BF01000890
:10005000BF010008BF010008BF010008BF01000880
:10006000BF010008BF010008BF010008BF01000870
:10007000BF010008BF010008BF010008BF01000860
:10008000BF010008BF010008BF010008BF01000850
:10009000BF010008BF010008BF0100084B070008AE
:1000A000BF010008BF010008BF010008BF01000830
:1000B000BF0100080000000000000000BF010008B0
:1000C000BF010008BF010008BF010008BF01000810
:1000D000BF010008B9270008C5270008BF010008B4
:1000E000BF010008BF010008000000000000000080
:1000F0000000000000000000000000000000000000
:1001000000000000BF01000800000000BF0100085F
:100110000000000000000000A5220008BF01000848
:10012000BF010008BF010008BF010008BF010008AF
:10013000BF010008000000000000000000000000F7
:10014000BF010008BF010008BF0100080000000057
:10015000BF010008BF010008BF010008BF0100087F
:10016000BF010008BF010008BF0100080000000037
:10017000BF010008BF0100080000000000000000EF
:10018000BF010008BF010008BF010008DFF810D060
:1001900000F058FA0048004749310008AFF30080EA
:1001A000480A00200648804706480047FEE7FEE769
:1001B000FEE7FEE7FEE7FEE7FEE7FEE7FEE7FEE717
:1001C000952200088D0100082DE9F05F054600200A
:1001D00092469B4688460646814640241BE02846B8
:1001E00041464746224600F05AF853465A46C01A3E
:1001F000914110D311461846224600F041F82D1ABD
:1002000067EB01084F4622460120002100F038F834
:1002100017EB00094E41201EA4F10104DFDC484623
:1002200031462A46434600F000B830BCBDE8C09FC6
:10023000D2B201E000F8012B491EFBD27047002228
:10024000F6E710B513460A4604461946FFF7F0FFD5
:10025000204610BD30B50B46014600202022012467
:1002600009E021FA02F59D4205D303FA02F5491B84
:1002700004FA02F52844151EA2F10102F1DC30BD9A
:10028000202A04DB203A00FA02F100207047914056
:10029000C2F1200320FA03F3194390407047202A4B
:1002A00004DB203A21FA02F00021704721FA02F320
:1002B000D040C2F1200291400843194670472DE911
:1002C000FE4F804681EA0300C00F0C46009021F0EB
:1002D000004123F00045B8EB0200A94105D2404699
:1002E000214690461C460B46024623F00040104330
:1002F00047D0270DC7F30A00C3F30A510290401AF2
:10030000019040286BDAC3F3130040F4801B00987F
:10031000924620B10023D2EB030A63EB0B0B01984A
:100320005946C0F140025046FFF7AAFF06460D4667
:1003300050465946019A00F097F910EB08006141C8
:10034000002487EA115284EAE7731A4340D0009AE6
:1003500062B3019A012A4FEA075215DC001B61EBD8
:1003600002014FF0004202EA0752CDE90042001CB0
:1003700041F5801132462B4600F097F903B000F0AA
:1003800045B840462146F9E7001B61EB0201001C1D
:1003900041F5801300185B412018A2F5001747EBC8
:1003A000030140EAD570B6196D4111E06D084FEABE
:1003B000360645EAC0754FEA0752001B61EB0201A1
:1003C000001C41F5801149084FEA300000195141E5
:1003D00032462B4603B000F01CB800F057B9009825
:1003E000012240000023D0EB020263EBE07300988F
:1003F00021464FEAE074B8EB000061EB0401E9E745
:1004000083F000435BE781F0004158E730BCBDE872
:10041000C08F30BCBDE8C04FFFF7DFBF2DE9FE4FF6
:1004200081EA030404F0004421F0004100944FF0FD
:10043000000B23F0004350EA01045ED052EA0304AB
:100440005BD0C3F30A54C1F30A552C44A4F2F3342D
:100450000194A0FB0254C1F3130141F48011C3F3D2
:10046000130343F4801301FB024400FB034E840A90
:10047000970A44EA815447EA8357A4FB0768029528
:100480008D0A05FB07854FEA932C04FB0C542705C6
:10049000029D4FEA065847EA1637B5EB08056EEBA2
:1004A000070C870E920E47EA811742EA8312A7FBD8
:1004B0000201B6EB0B0164EB00042B0D43EA0C3395
:1004C0005E1844EB1C50DA465146E7FB0201C5F3C7
:1004D00013044FEA0B3343EA14534FEA0432019CEE
:1004E00043EA0603A4F10C040294009CCDE900B495
:1004F00000F0DBF803B000F003B800200146F9E794
:1005000030BCBDE8C08F2DE9F04D81EA030404F052
:10051000004B21F0004514464FF0000A23F0004143
:1005200050EA050220D054EA01021DD0C5F30A5753
:100530000246C5F31303C1F31300C1F30A5640F496
:10054000801543F48013A7EB0608101BD64608F26B
:10055000FD3873EB050002D308F1010801E09218A1
:100560005B41B8F1000F03DA00200146BDE8F08DD1
:1005700000204FF48011064684460EE0171B73EBF3
:10058000050705D3121B63EB050306434CEA010C78
:1005900049084FEA300092185B4150EA0107EDD15B
:1005A00052EA030012D082EA040083EA05010843FC
:1005B00005D0101BAB4106D20122002306E0002229
:1005C0004FF0004302E06FF0010253101AEB0600F7
:1005D0004CEB085110EB0A0041EB0B01BDE8F04D6C
:1005E00000F054B8C1F30A52C1F3130140F2FF33D3
:1005F00041F480119A4202DA00200146704740F22D
:1006000033439A42A2F2334202DC5242FFF747BE22
:10061000FFF736BE30B5041E71F1000404DB4FF065
:100620000044404264EB0101141E73F1000405DB39
:100630001C464FF00043524263EB0403994208BF4B
:10064000904230BD064C074D06E0E06840F00103E3
:1006500094E8070098471034AC42F6D3FFF79AFDB0
:100660000032000820320008202A06DBCB17203A8F
:1006700041FA02F043EAE07306E041FA02F3D040A7
:10068000C2F12002914008431946704710B5141E6C
:1006900073F1000408DA401C41F1000192185B413B
:1006A0001A4301D120F0010010BD2DE9F04D924612
:1006B0009B4611B1B1FA81F202E0B0FA80F2203229
:1006C0009046FFF7DDFD04460F4640EA0A0041EA86
:1006D0000B0153465A46084313D0114653EA010012
:1006E00019D0C8F140025046FFF7D9FD05460E4625
:1006F000504659464246FFF7C3FD084305D0012046
:1007000004E020463946BDE8F08D0020054346EA66
:10071000E0762C4337430A986305E40AA0EB08000F
:100720000022FD0A44EA47540A3002D5002001465F
:10073000E9E7010510196941DDE90845001969413A
:10074000BDE8F04DA2E7FEE77047202000F064B856
:1007500072B6FEE710B540B190F8251000220229CC
:1007600005D00421C16380F82420012010BD016858
:100770000B6823F001030B6001680B6823F00E0384
:100780000B6090F84410046C01F01C03012101FA85
:1007900003F3636080F8251080F82420002010BD4A
:1007A00010B590F825100024022903D00421C1635C
:1007B00001241AE001680A6822F001020A60016857
:1007C0000A6822F00E020A6090F84410036C01F0EF
:1007D0001C02012101FA02F25A6080F82510002162
:1007E00080F82410816B01B18847204610BD0000BD
:1007F00070B5044600F008F90546601C02D00448B4
:100800000078044400F000F9401BA042FAD370BD08
:100810000400002070470000044910B50A68024235
:1008200002D00860FFF7F6FF10BD0000140401407D
:100830002DE9F04FDFF8AC9100230325A9F1040B5B
:1008400085B04FF0010C0F2709F1040AABF1040E3B
:10085000BFE000BF0CFA03F6324075D00C7904F00B
:100860000304012C01D0022C1BD1846800945C008D
:1008700005FA04F80494009C24EA08040094D1F8D2
:100880000C80049C08FA04F8009C48EA0408C0F8AC
:1008900008804468B4430E79C6F300169E40264390
:1008A00046600C79E443A4070AD0C4684FEA4308C1
:1008B00005FA08F6B4438E6806FA08F62643C660C1
:1008C0000C7904F00304022C10D1DC0800EB840442
:1008D0000294246A5E074FEAD66807FA08F6B44322
:1008E0000E6906FA08F62643029C266204684FEA5F
:1008F000430805FA08F6B4430E7906F0030606FA33
:1009000008F6264306604C6814F4403F60D0364C2D
:10091000266E46F001062666246E23F0030604F0D8
:1009200001040094314C34440294A4689E074FEAB9
:10093000167807FA08F6B443B0F1904F05D02C4E64
:10094000B04204D1012612E042E000260FE0294E19
:10095000B04201D102260AE0274EB04201D103265F
:1009600005E0264EB04201D1042600E0072606FA33
:1009700008F62643029CA660D9F800604C46D1F8E0
:10098000048096435FEAC82800D516432660DAF84B
:1009900000405646D1F8048094435FEA882800D589
:1009A00014433460DBF800405E46D1F80480944381
:1009B0005FEA883800D514433460DEF8004076469C
:1009C000D1F8048094435FEAC83800D514433460FA
:1009D0005B1C0A6832FA03F47FF43CAF05B000F008
:1009E0000FB8000008040140001002400000014060
:1009F0000004004800080048000C004800100048AF
:100A000030BCBDE8C08F000001488068704700001E
:100A10000400002002488168027811448160704718
:100A20000400002010B50024032000F071F80F200E
:100A300000F008F808B1012401E000F025F8204694
:100A400010BD000070B50E4E05460024307898B1F8
:100A50004FF47A71B1FBF0F00A490968B1FBF0F08C
:100A600000F060FE40B9102D06D200222946501E2B
:100A700000F02EF8756000E00124204670BD0000F3
:100A80000400002010000020094808B5016E41F064
:100A900001010166016E01F001010091816D41F0DB
:100AA00080518165806D00F08050009008BD00008D
:100AB00000100240002809DB00F01F0201219140D4
:100AC0004009800000F1E020C0F8001170470000EC
:100AD000F0B40E4B1B680C46C3F30223C3F10705A9
:100AE000042D00D90425191D072901D2002300E097
:100AF000DB1E012606FA05F1491E214099409E4061
:100B0000761E16403143F0BC01F0A6BE0CED00E0AD
:100B1000064900F0070208684FF6FF03184040EA54
:100B20000220034A10430860704700000CED00E00B
:100B30000000FA051649B0F5007F0868C0F34120AF
:100B400009D0022805D0086820F4C06040F4806015
:100B50000860002070470128FBD0086820F4C060BE
:100B600040F4007008600B483222006850430A4A83
:100B7000B0FBF2F0401C00E0401E4A69520501D56E
:100B80000028F9D148694005E3D5032070470000EB
:100B9000007000401000002040420F000248006832
:100BA00000F4C06070470000007000402DE9F84F6D
:100BB000044600270088A84D3E46000515D5606C08
:100BC00060B1B0F5000F04D0B0F5400F2BD0012775
:100BD0000AE0E86840F48030E86024E00021201D4D
:100BE00001F0F6F907001ED03E46206880033AD592
:100BF000A86D4FF00008C00009D4A86D40F08050E7
:100C0000A865A86D4FF0010800F080500090DFF853
:100C10004CA2DAF8001041F48071CAF80010FFF716
:100C2000F3FE814610E0D5F88800616C20F44000A6
:100C30000843C5F88800D8E7FFF7E6FEA0EB0900F7
:100C4000022801D9032705E0DAF80000C005F3D532
:100C5000002F7DD04FEA0706B8F1000F03D0A86D32
:100C600020F08050A8652078C00707D0D5F888000C
:100C7000216A20F003000843C5F888002078800727
:100C800007D5D5F88800616A20F00C000843C5F844
:100C900088002078400707D5D5F88800A16A20F0A1
:100CA00030000843C5F888002078800607D5D5F8BD
:100CB0008800E16A20F440600843C5F88800208875
:100CC000800507D5D5F88800E16B20F44020084363
:100CD000C5F888002088400507D5D5F88800216C24
:100CE00020F440100843C5F888002078400607D556
:100CF000D5F88800216B20F440500843C5F88800DF
:100D00002078000607D5D5F88800616B20F44040B4
:100D10000843C5F888002088C00507D5D5F88800A5
:100D2000A16B20F440300843C5F8880020684FF0DC
:100D3000006700034FF0806850D5D5F88800A16C9B
:100D400020F040600843C5F88800A06CB84200E07D
:100D500005E03BD1E86840F48010E8603EE0D5F85B
:100D6000900010F4407014D0A16D814211D0D5F8DC
:100D70009000D5F8901020F4407041F48031C5F80F
:100D80009010D5F8901021F48031C5F89010C5F876
:100D90009000C00711D0FFF737FE074641F28839AF
:100DA00007E000BFFFF730FEC11B494501D903260C
:100DB00052E7D5F890008007F4D5D5F89000A16DE2
:100DC00020F440700843C5F8900045E7404505D140
:100DD0000121201D01F0FCF800B106462068400307
:100DE00017D5D5F88800E16C20F040600843C5F8BD
:100DF0008800E06CB84204D1E86840F48010E860F4
:100E000007E0404505D10121201D01F0E1F800B1C6
:100E100006462088400411D5D5F88800216D20F0C1
:100E200040500843C5F88800206DB0F1805F05D1BF
:100E30000221201D01F0CCF800B1064620880004F4
:100E400006D555F8880F616D20F080400843286072
:100E5000304600F005B8000000100240007000406D
:100E600018BCBDE8E08F00002DE9F0470F460500F3
:100E70006BD0494E306800F00700B84209D23068A4
:100E800020F0070038433060306800F00700B842B7
:100E90005BD12878414C80070AD5A868A16801F089
:100EA000F001884204D9A16821F0F0010143A1605A
:100EB0002878C0072CD06868032811D0022812D0E7
:100EC000216898B1490500293FDAA16821F00301A2
:100ED0000143A160FFF798FD804641F2883910E098
:100EE00021688901EFE721688903ECE78907EAE7D0
:100EF000FFF78AFDA0EB0801494502D90320BDE8B0
:100F0000F087A068696800F00C00B0EB810FEFD1AA
:100F1000287880070AD5A868A16801F0F001884206
:100F200004D2A16821F0F0010143A160306800F013
:100F30000700B8420BD9306820F007003843306012
:100F4000306800F00700B84201D00120D7E72878C8
:100F5000400705D5A068E96820F4E0600843A06078
:100F60002878000706D5A068296920F4605040EA77
:100F7000C100A06000F03EF8A168094AC1F3031166
:100F8000515C01F01F01C84006490860064800682E
:100F9000BDE8F047FFF756BD0020024000100240B8
:100FA000B83100081000002008000020054806495C
:100FB00000688968054AC1F30221515C01F01F01F4
:100FC000C84070471000002000100240F8310008AF
:100FD0000548064900688968054AC1F3C221515C89
:100FE00001F01F01C84070471000002000100240AF
:100FF000F831000870B52549002318468A68CC6886
:1010000012F00C0204F00306214C4FEA640509D0EB
:101010000C2A05D0042A32D0082A00D1284670BDF7
:10102000012E10D10B681B0704D4D1F89430C3F300
:10103000032302E00B68C3F30313164E56F8233064
:10104000DAB10C2AEBD1C86800F00300022818D0EE
:10105000032818D01846CA68CB68C2F30212C3F33B
:1010600006234343521CB3FBF2F2C868C0F341604D
:10107000401C4000B2FBF0F070BD184670BD204629
:1010800070BD2046E7E72846E5E700000010024073
:101090000024F400C83100082DE9F84304006FD0A3
:1010A000FA4DA86800F00C06E86800F00307207805
:1010B000C00664D576B10C2E01D1012F0AD0A069EB
:1010C000002828687AD040F001002860FFF79CFCD7
:1010D00080465DE02868800702D5A0690028DED040
:1010E000216A2868000703D5286800F0F00004E0B2
:1010F000D5F89400F02202EA1010814216D9084671
:1011000000F0FCFF00283BD1286840F00800286070
:101110002868216A20F0F000084328606868E169C7
:1011200020F47F4040EA0120686016E0286840F023
:10113000080028602868216A20F0F0000843286031
:101140006868E16920F47F4040EA0120686026B9C0
:10115000206A00F0D3FF0028D5D1FFF74BFFA96824
:10116000CB4AC1F30311515C01F01F01C840C949CA
:101170000860C9480068FFF765FC00287ED12EE0B2
:10118000CAE000BFFFF740FCA0EB0800022876D8B9
:1011900028688007F6D5286840F00800286028688D
:1011A000216A20F0F000084328606868E16920F4B3
:1011B0007F4040EA0120686011E0FFE720F0010075
:1011C0002860FFF721FC804606E000BFFFF71CFC0B
:1011D000A0EB08000228DAD828688007F6D4207827
:1011E000C00740D0082E18D00C2E01D1032F14D0E8
:1011F0006068B0F5803F17D0B0F5A02F286817D0F1
:1012000020F480302860286820F4802028606068FE
:10121000E0B1FFF7F9FB804614E02868800322D58F
:101220006068002878D01EE0286840F48030EDE740
:1012300040F480202860F7E7FFF7E6FBA0EB08000A
:101240006428A4D828688003F6D50CE0FFF7DCFBFF
:10125000804605E0FFF7D8FBA0EB0800642896D88D
:1012600028688003F6D4207880073BD5042E11D05F
:101270000C2E01D1022F0DD0E06801E0AAE1FFE0C1
:10128000002828681ED040F480702860FFF7BCFB5F
:1012900007460CE0286840050CD5E0680028C1D05E
:1012A00008E000BFFFF7B0FBC01B022893D82868F6
:1012B0004005F7D56868217C20F0F85040EA0160CD
:1012C00068600FE020F480702860FFF79DFB074600
:1012D00005E000BFFFF798FBC01B0228B1D82868C3
:1012E0004005F7D42078000729D560690028D5F893
:1012F000940012D040F00100C5F89400FFF784FB81
:10130000074604E0FFF780FBC01B022899D8D5F8F8
:1013100094008007F6D512E02BE120F00100C5F81B
:101320009400FFF771FB074605E000BFFFF76CFB79
:10133000C01B022885D8D5F894008007F6D4207801
:10134000400766D5A86D0027C00008D4A86D40F0FE
:101350008050A865A86D012700F0805000904F488C
:101360000168C90512D40168814641F480710160A9
:10137000FFF74AFB804605E0FFF746FBA0EB0800BD
:1013800002287DD8D9F80000C005F5D5A06801284D
:1013900016D00528D5F8900017D020F00100C5F828
:1013A0009000D5F8900020F0040000BFC5F8900030
:1013B000A06841F28839C0B1FFF726FB80460FE0F4
:1013C000D5F8900040F00100F0E740F00400C5F8C7
:1013D0009000F5E7FFF718FBA0EB080149454FD84F
:1013E000D5F890008007F5D50EE0FFF70DFB80469D
:1013F00006E000BFFFF708FBA0EB080149453FD816
:10140000D5F890008007F5D41FB1A86D20F080506A
:10141000A8652078800628D5606A0028D5F898004D
:1014200012D040F00100C5F89800FFF7EDFA07462A
:1014300005E000BFFFF7E8FAC01B022820D8D5F866
:1014400098008007F6D510E020F00100C5F898005C
:10145000FFF7DAFA074604E0FFF7D6FAC01B0228C6
:101460000ED8D5F898008007F6D4A06AF0B3022809
:1014700016D00C2E7DD0286820F08070286000E007
:10148000A7E0FFF7C1FA0446A6E000000010024002
:10149000B831000810000020080000200070004053
:1014A000E868E26A00F00301914228D1216B00F064
:1014B000700209011039914221D1626B00F4FE41A2
:1014C000B1EB022F1BD194F8382000F07841B1EB3A
:1014D000C26F14D1A18F00F4C00249084905A1F5DB
:1014E000001191420BD194F8401000E06AE04908E5
:1014F000490600F0C060A1F1007181424BD00C2E72
:1015000073D02868400170D4286820F0807028606B
:10151000FFF77AFA064604E0FFF776FA801B022806
:1015200057D828688001F7D4F4E90B016FF00F0257
:1015300002EB01110843218A5204490802EB415190
:10154000A26841EA02210843217D4FF07E4249080A
:1015500002EB41610843217B40EAC160E968244A0B
:1015600011400843E860286840F080702860E8680F
:1015700000E03AE040F08070E860FFF745FA04468A
:1015800005E000BFFFF740FA001B022821D82868B9
:101590008001F7D527E02868800124D4286840F02E
:1015A00080702860E86840F08070E860FFF72CFAEF
:1015B000044604E0FFF728FA001B022809D828682F
:1015C0008001F7D50FE000BFFFF71EFA001B0228CD
:1015D00002D90320BDE8F88328688001F4D4E868C4
:1015E00004490840E8600020F4E70120F2E7000029
:1015F0008C809D01FCFFEEFE10B504004FF0010051
:1016000048D094F8210028B9002084F82000204612
:1016100000F04AF8022084F821002068C168C9431C
:10162000C90638D5CA214162216853204862204644
:1016300000F0A2FDB0B9206881681A4A11408160AB
:10164000216888686268A369104322691A431043BD
:1016500088602168E068086120680169228941EAA0
:1016600002410161204600F0ABFD00280DD1216848
:10167000CA6C22F00302CA646269E16941EA0201AC
:101680002268D36C41EA0301D16422684FF0FF0164
:10169000516202D010BD4FF000004FF0010184F8FC
:1016A000211010BDBFFF8FFF10B598B004465C211C
:1016B0006846FEF7C4FD0B492068884210D14FF4FC
:1016C00000300090001216906846FFF76FFA08B1DC
:1016D000FFF73EF8044850F8901F41F400410160C4
:1016E00018B010BD002800400010024070B504463C
:1016F0000B482168C860FFF787F905464FF47A76F2
:1017000007E000BFFFF780F9401BB04201D903207A
:1017100070BD2068C0688006F4D5002070BD000050
:101720005FFF030010B5401EB0F1807F01D30120A0
:1017300010BD4FF0E02460610F21601701F08CF8BC
:101740000020A06107202061002010BDF0B590F8B6
:101750003C20012A29D0012480F83C40022280F854
:101760003D2003685A689D68114EB34203D122F4AC
:1017700070074A683A4322F070070A683A435A6091
:101780000268B24205D0B2F1804F02D0094B9A42B2
:1017900004D1896825F080031943916080F83D40A9
:1017A000002180F83C100846F0BD0220F0BD00008A
:1017B000002C01400040014010B5040003D094F813
:1017C0003D0010B107E0012010BD002084F83C006E
:1017D000204600F023F8022084F83D00211D2068F7
:1017E00000F082FD012084F8480084F83E0084F86F
:1017F0003F0084F8400084F8410084F8420084F8F7
:10180000430084F8440084F8450084F8460084F8D6
:10181000470084F83D00002010BD000008B50068B6
:101820000B49884212D10B48816D41F0100181654E
:10183000806D012200F01000009000213620FFF79B
:1018400047F9BDE808403620FFF734B908BD00006D
:1018500000100040001002407047704770470000C1
:101860002DE9F04102680446D0691168936840F69A
:101870000F0528424FF000054FF0020605D18706FC
:101880007ED58F067CD5A16E33E1DFF894C203F0DC
:10189000010701EA0C0C57EA0C0C71D05FEAC07C1E
:1018A0000CD05FEAC15C09D54FF0010CC2F820C032
:1018B000D4F8842042F00102C4F88420820709D5BC
:1018C000DA0707D022681662D4F8842042F00402B6
:1018D000C4F8842042070AD5DA0708D02368042216
:1018E0001A62D4F8842042F00202C4F8842002076D
:1018F0000CD501F020023A4308D0236808221A626E
:10190000D4F8842042F00802C4F8842002050BD5E4
:101910004A0109D523684FF400621A62D4F8842082
:1019200042F02002C4F88420D4F88420002A36D063
:10193000800605D5880603D5A16E09B120468847E3
:10194000D4F8840021688968490602D410F0280F71
:1019500027D0204600F0BFFD2068806840061BD5D8
:101960002068083050E8001F21F0400140E80012D4
:10197000002AF5D1606F78B16A498163606F00E039
:1019800015E0FEF70DFF002809D0606F816B00E0C5
:101990002046BDE8F04108472046FFF75FFFBDE85D
:1019A000F0812046FFF75AFFC4F88450F7E7D4F8D7
:1019B00060C02027BCF1010F7ED15FEAC06C7BD5EF
:1019C0005FEAC16C78D510201062206880684006FC
:1019D0004FD5616F0A6850680004000C3DD0B4F820
:1019E0005830834239D9A4F85A0008680068800644
:1019F0002BD4206850E8001F21F4807140E80012C9
:101A0000002AF6D12068083050E8001F21F00101BB
:101A100040E80012002AF5D12068083050E8001F85
:101A200021F0400140E80012002AF5D1C4F880708E
:101A30002566206850E8001F21F0100140E80012E0
:101A4000002AF6D1606FFEF785FE6666B4F858008E
:101A5000B4F85A10401A81B207E0B4F85810814225
:101A60009DD1106880069AD566662046FFF7F4FE81
:101A700095E7B4F85800B4F85A10401A81B2B4F897
:101A80005A0000288BD0002989D0226852E8000F24
:101A900020F4907042E80003002BF6D12068083053
:101AA00050E8002F22F0010240E80023002BF5D17E
:101AB000C4F88070256600E00AE0A566226852E856
:101AC000000F20F0100042E80003002BF6D1CBE716
:101AD000C60209D55B0207D54FF48010106220467C
:101AE000BDE8F041FFF7B9BE020606D50A0604D5E7
:101AF000E16E00297FF44CAF51E74006B8D54806A7
:101B0000B6D52046026852E8001F21F0400142E8A5
:101B10000013002BF6D1C767C56600F088F93EE7D1
:101B200020010004CD24000810B5040002D0E06FAD
:101B300010B107E0012010BD002084F87800204695
:101B400000F026F82420E0672068016821F00101F8
:101B50000160606A10B1204600F000FC204600F0F1
:101B6000E1FC0128E7D02068416821F49041416000
:101B70002068816821F02A0181602068016841F0B5
:101B8000010101602046BDE8104000F04BBC0000A0
:101B90002DE9F0419EB00446142117A8FEF74FFB33
:101BA0005C216846FEF74BFB32492068324C032724
:101BB000002502264FF00708884229D10120009015
:101BC00008956846FEF7F2FF08B1FEF7C1FD206EEA
:101BD00040F480402066206E00F480401C90E06C51
:101BE00040F00200E064E06C19AA00F002001C90D2
:101BF000C020CDE9170682E8A00117A91F48FEF70B
:101C000017FE002211462520FEF762FF25202BE05B
:101C10001B4988422AD1684600960995FEF7C6FFFF
:101C200008B1FEF795FDA06D40F40030A065A06DF1
:101C300000F400301C90E06C40F00100E064E06CC7
:101C400019AA00F001001C900C20CDE9170682E8CB
:101C5000A00117A94FF09040FEF7EAFD00221146BF
:101C60002620FEF735FF2620FEF724FF1EB0BDE834
:101C7000F0810000003801400010024000040048DC
:101C8000004400402DE9F84F0446D0F880009B4600
:101C900016460D46202802D0022000F06BB87DB316
:101CA00076B30027C4F884702220C4F88000276629
:101CB0001C34FEF7A9FEA6878246E68754F8140C6A
:101CC0004FF48053FF211C3C984204D12269A2B9F1
:101CD00040F2FF1111E07F2268B1B0F1805F10D0B7
:101CE000A4F85C70B4F85C70984201D1206978B1B6
:101CF0002E4600250DE026693EB9A4F85C10F1E7F8
:101D000028E0216909B13F21F7E7A4F85C20E9E761
:101D100000264FF0200807F0FF0900BFB4F85A0072
:101D200020B35346002220212046CDF800B000F019
:101D3000F9FC18B1C4F880800320AEE72068406A3F
:101D400056B100EA090006F8010B00BFD4F8800084
:101D5000222805D00120A0E7384025F8020BF5E73E
:101D6000B4F85A00401EA4F85A00D7E7C4F880809F
:101D7000002092E718BCBDE8E08F00002DE9F84F85
:101D80000446C06F984615460E46202802D0022011
:101D900000F04AB886B37DB30020C4F884004FF049
:101DA0002109C4F87C90FEF72FFEA4F8505082461B
:101DB000A4F85250A068B0F5805F01D1206910B13D
:101DC0003546002600E000255FF02007B4F85200F9
:101DD00053464FF00002CDF80080D0B1802120465C
:101DE00000F0A0FCD0B94DB115F8010B2168886254
:101DF000E16F39EA010006D00120C9E736F8020B8D
:101E0000C0F30800F2E7B4F85200401EA4F85200F4
:101E1000DCE74021204600F085FC10B1E767032095
:101E2000B6E7E7670020B3E718BCBDE8E08F70476E
:101E3000FEE7000000B587B014216846FEF7FFF901
:101E40001648C16C41F08001C164C16C01F0800191
:101E50000591C16C41F00101C164C16C01F0010147
:101E60000591C16C41F00201C164C06C694600F08B
:101E700002000590202000904FF48810019000206F
:101E800002900748FEF7D4FC002211461720FEF707
:101E90001FFE1720FEF70EFE07B000BD0010024027
:101EA000000400480C4810B50A49016000217F2257
:101EB000C0E90112FF22C0E9032141618161C161D2
:101EC000FFF79AFB002803D0BDE81040FEF740BCA6
:101ED00010BD000000280040A80100203EB50024ED
:101EE0000E4A009401940294C2E902400A4B9461A4
:101EF000C2E900311046FFF75FFC08B1FEF728FC8D
:101F00000094694605480294FFF720FC002801D0A0
:101F1000FEF71EFC3EBD000000100040CC0100207A
:101F200010B51649144A00240A60C1E901040C20C6
:101F3000CC60C1E904408C61CC610C6208464C6203
:101F4000FFF7F2FD08B1FEF703FC41F63F71632095
:101F5000FFF7C4FF0A480068016A0A4A114207D124
:101F6000016A9212114203D1016821F0010101605E
:101F70000548048010BD000000380140A80300207F
:101F8000CC01002011111100000000200D4810B5F7
:101F90000B4901604FF4E1314160002181600C2266
:101FA000C160C0E904128161C16101624162FFF751
:101FB000BBFD002803D0BDE81040FEF7C9BB10BD33
:101FC0000044004030040020FEE7FEE770470000B8
:101FD0002DE9F041444C05468846E068002681071B
:101FE00028680DD0E16801F00301814216D1A8B143
:101FF000E0686968C0F30210401C88420ED120E0FE
:10200000012804D0022805D0032807D108E0216860
:10201000890701E021684905002907DB01265FE007
:102020002168890302D421684903F5E7E1686A68F9
:102030006FF00F0321F0730103EB02121143014310
:10204000E160206820F080602060FEF7DDFC07463C
:1020500005E000BFFEF7D8FCC01B022837D8206877
:102060000001F7D4B8F1000F18D0B8F1010F1DD05E
:10207000287D4FF07E41400801EB4060A96840EAAE
:1020800001202169194A114008432061206840F06D
:1020900080602060FEF7B8FC07461AE0A868297B3C
:1020A000000240EAC1602169114AECE7288A11491F
:1020B000400801EB4050A96840EA012021690E4A1E
:1020C000E1E700BFFEF7A0FCC01B022801D90326F0
:1020D00006E020680001F5D52069A9690843206160
:1020E0003046BDE8F081000000100240FF80FFF99B
:1020F000FF80FF070000E0FFFF809FFFF8B51C4D49
:1021000006460024A86DC00002D5FEF747FD0DE08D
:10211000A86D40F08050A865A86D00F08050009038
:10212000FEF73CFDA96D21F08051A965B0F5007F57
:1021300004D0802E07D94FF003040AE0802E08D97E
:10214000A02E01D804E001D1022402E0702E00D1BB
:1021500001240848016821F007012143016000685B
:1021600000F00700A04201D00120F8BD0020F8BD1A
:1021700000100240002002402DE9F04104460068B2
:102180000025C168490617D4691EC160FEF73CFCF2
:1021900006464FF47A78032708E000BFFEF734FCC8
:1021A000801B404502D9032584F821702068C0684F
:1021B000400601D4032DF1D12846BDE8F08100008E
:1021C0002DE9F041064613480025016821F0800101
:1021D0000160041F20684FF00307800607D43046D3
:1021E000FFF784FA90B186F8217003250EE020688D
:1021F00020F0200020603046FFF778FA10B186F812
:1022000021700325206840F0200020602846BDE8AA
:10221000F08100000C2800407047FEF7FBBB10B5B2
:1022200096B044216846FEF70AF8142111A8FEF77B
:1022300006F84FF40070FEF77DFC08B172B6FEE7B9
:10224000092000904FF48030012101900591022077
:1022500003240A90CDE90B4114210D910721CDE90A
:102260000E1010906846FEF717FF08B172B6FEE731
:102270000F20CDE911040020139014901590042133
:1022800011A8FEF7F1FD002801D072B6FEE716B0E6
:1022900010BD00000248016841F470010160704700
:1022A00088ED00E00D4801680A69D243D20713D1D6
:1022B000921E0A610A490A8842F400420A800068B4
:1022C000016A084A114207D1016A9212114203D1F0
:1022D000016821F00101016070470000CC0100207D
:1022E000000000201111110070B50268184B4FF06A
:1022F0008046984201D0B04203D122F070044A686F
:102300002243144C144D984205D0B04203D0A04251
:1023100001D0A84203D122F44076CA6832434E6904
:1023200022F0800232438E68C6620E68866298424E
:1023300003D0A04201D0A84201D10969016301681C
:1023400041F00401016001214161026070BD0000A3
:10235000002C0140004001400044014090F824104E
:10236000090706D501684A68436B22F400421A4304
:102370004A6090F82410C90706D001684A68836A49
:1023800022F400321A434A6090F82410890706D5D7
:1023900001684A68C36A22F480321A434A6090F89E
:1023A0002410490706D501684A68036B22F480228D
:1023B0001A434A6090F82410C90606D501688A6855
:1023C000836B22F480521A438A6090F824108906A5
:1023D00006D501688A68C36B22F400521A438A60EA
:1023E00090F82410490611D501684A68036C22F45C
:1023F00080121A434A60016CB1F5801F06D1016852
:102400004A68436C22F4C0021A434A6090F82410D0
:10241000090606D501684A68806C22F4002202434E
:102420004A6070472DE9F84300260446C0F88460EE
:10243000FEF7EAFA8046206800684FF020050007A2
:102440006FF07E4712D543460022290420460097AC
:1024500000F068F950B1216851E8000F20F08000C9
:1024600041E80002002AF6D1E56721E02068006813
:10247000400722D5434600224FF4800120460097B2
:1024800000F050F9C8B1216851E8000F20F49070B5
:1024900041E80002002AF6D12068083050E8001F09
:1024A00021F0010140E80012002AF5D1C4F8805063
:1024B00084F878600320BDE8F883E567C4F88050AD
:1024C00044F8606F666026760020F4E710B5806AF5
:1024D000FFF7C4F910BD016851E8002F22F4907293
:1024E00041E80023002BF6D10168083151E8002FA4
:1024F00022F0010241E80023002BF5D1016E0129F1
:1025000008D1026852E8001F21F0100142E80013D0
:10251000002BF6D12021C0F88010002101668166D1
:10252000704700002DE9F041044601688068226987
:10253000E3691043626900251A431043714F0A682A
:10254000714B1A4002430A6020684168E26821F436
:102550004051114341602168A069B94201D0226A0B
:1025600010438A6822F4306202438A606749236814
:1025700067488B420DD1D0F8880010F0030006D0D8
:10258000012847D0022843D0032830D144E001215C
:102590002EE060498B420BD1D0F8880010F00C007F
:1025A00034D0042836D0082832D00C281FD133E08C
:1025B00059498B420BD1D0F8880010F0300025D05B
:1025C000102827D0202823D0302810D124E0BB4267
:1025D0000DD1D0F8880010F4406017D0B0F5806FAE
:1025E00018D0B0F5006F13D0B0F5406F14D01021A3
:1025F0004A4A00264FF40040BB422FD171B1022954
:102600000FD004290FD0082973D10FE00021EFE784
:102610000221EDE70421EBE70821E9E7FEF7C6FC1C
:1026200003E0104602E0FEF7E5FCE8B3626802EB67
:10263000420181425DD8B0EB023F5AD8010E03023D
:102640005008181871410023FDF7BEFD344AA0F56B
:10265000407191424DD82168C8604BE0E3694FF664
:10266000EF77834228D1092943D2DFE801F005083A
:102670000B420D4242421000FEF798FC06E0FEF7C6
:10268000A7FC03E0104602E0FEF7B4FC60B1410095
:10269000606801EB5001B1FBF0F0A0F11001B9420C
:1026A00027D84FF6F07100E024E00140C0F342006B
:1026B00001432068C1601DE009291AD2DFE801F05A
:1026C00005080B190D1919191000FEF76FFC06E02B
:1026D000FEF77EFC03E0104602E0FEF78BFC48B1FB
:1026E000616800EB5100B0FBF1F0A0F11001B942BC
:1026F00005D90125A6662846E666BDE8F08180B2C8
:10270000A9E7000000800040F369FFEF00380140B6
:102710000010024000440040004800400024F40043
:10272000FFFC0F002DE9F047994617460D46044679
:102730004FF00008089E33E0701C31D0FEF764F9BA
:10274000A0EB0900B04218D8BEB120680168490763
:1027500026D5802D24D0402D22D0C169C943090738
:102760000DD4082505622046FFF7B5FEC4F8845055
:1027700084F878800120BDE8F0870320FBE7C0697A
:10278000C04300050CD421684FF400600862204665
:10279000FFF7A1FE2020C4F8840084F87880ECE7DD
:1027A0002068C06935EA000004D00020B842C3D0D8
:1027B0000020E0E70120F9E70148FFF751B80000E9
:1027C000A8030020174808B50068C069C043800608
:1027D00021D44FF47A73012269461248FFF752FA66
:1027E00011480188090416D40188B1F5C87F13D2B5
:1027F0000E4900220B685A62028822B909680A68E9
:1028000042F001020A609DF800200188084B0B4449
:10281000491C01801A7008BD018841F40041018003
:1028200008BD0000A803002000000020CC0100200B
:10283000B8040020FEE700000FB4054B10B503A953
:10284000044A029800F0EEF810BC5DF814FB00009A
:1028500031310008140000200907090E002804DBAC
:1028600000F1E02080F80014704700F00F0000F144
:10287000E02080F8141D704702E008C8121F08C14C
:10288000002AFAD170477047002001E001C1121FF1
:10289000002AFBD1704700002DE9FF5F82B00021C4
:1028A000DDE90430020DDDF840B0034318D044F6F2
:1028B0001050A2F2FF3242431514119801281FD084
:1028C000A5EB0B00401C5FEA000A4FF000064E4FDC
:1028D000DFF83891B046504615D5CAF1000413E030
:1028E000119801244AA3012801D16FEA0B01029833
:1028F000119AC0E90031C0E9024206B000F08EB87A
:10290000CBF10000DFE704460021404A491842EBC2
:102910000450CDE9001012E0E00707D032463B46F4
:1029200040464946FDF77AFD8046894632463B4699
:1029300010461946FDF772FD06460F466410002C3E
:10294000EAD1DDE90401DDE90023BAF1000F06DA7E
:10295000FDF764FD42464B46FDF760FD05E0FDF7DF
:10296000D2FD42464B46FDF7CEFD04460E46002200
:10297000284BFDF74FFE03D84FF0FF30014607E02C
:102980000022254B20463146FDF799FCFDF72AFE33
:10299000102409E0002C0ADB0A220023FDF714FCB6
:1029A000039B30321A55641E50EA0102F2D1641CB6
:1029B000039AC4F111031444119A012A03D001228D
:1029C00008430DD10AE0084304D000204FF0110B5A
:1029D000119072E7A3EB0B056D1E0DE05B4504DD66
:1029E0004FF0000205F1010504E003DA4FF00002A8
:1029F000A5F10105002AECD002981199C0E9023135
:102A0000C0E9004579E70000000014400000F03FF5
:102A1000300000000000F0430000E03F30BCBDE8A3
:102A2000C09F00002DE9FF4F95B09A4688460646A4
:102A30000025EEE1252877D100242746F94A012117
:102A4000039400E0044316F8013F203B01FA03F031
:102A50001042F7D130782A2811D06FF02F03307848
:102A6000A0F13002092A16D8039A44F0020402EBBE
:102A7000820203EB42021044761C0390EFE758F801
:102A8000042B0392002A03DA504244F400540390CA
:102A900044F00204761C30782E2816D116F8010F67
:102AA00044F004042A280DD06FF02F023078A0F1F2
:102AB0003003092B09D807EB870302EB4303C71840
:102AC000761CF3E758F8047B761C30786C280FD01E
:102AD00006DC4C2817D068280DD06A2814D104E0F1
:102AE000742810D07A280FD10DE044F400140AE0C5
:102AF00044F4801401E044F440147278824202D11C
:102B000004F58014761C761C307866280BD013DC14
:102B1000582877D009DC002875D04528F6D04628FB
:102B2000F4D047281AD193E118E0632835D06428FF
:102B300079D0652812D18BE1702873D008DC672822
:102B4000F1D069286FD06E280DD06F2806D1ACE087
:102B500073282CD0752874D0782853D052461799F2
:102B600090476D1C54E1C4F30250022809D0032899
:102B70000DD0D8F8001004280DD00D6008F104081D
:102B800046E1D8F80010EA17C1E90052F6E7D8F894
:102B900000100D80F2E70D70F0E718F8041B8DF8B7
:102BA000001000208DF80100EB46012003E058F8EA
:102BB00004BB4FF0FF3061074FF0000102D40DE07D
:102BC00009F101018946B9420FDA8145F8DB1BF8AA
:102BD00009100029F4D108E009F101018946814278
:102BE000FADB1BF809100029F6D103985346A0EB35
:102BF000090721463846179A00F083FA284400EB6B
:102C0000090507E044E008E10DE01BF8010B52461E
:102C100017999047B9F10109F7D253462146384632
:102C2000179AF2E039E00A21C4F302524FF0000B88
:102C30000091022A06D058F8040BC117032A09D0C4
:102C40000AE023E008F1070020F00702F2E80201A1
:102C5000904605E000B2C117042A01D140B2C11765
:102C6000002906DA0A460021404261EB02012D22CA
:102C700002E0220504D52B228DF80420012203E076
:102C8000E20701D02022F7E7914657E00A2100E051
:102C900010214FF0000B00910BE010214FF0000BC2
:102CA00044F004040827009103E008204FF0000BD3
:102CB0000090C4F30252022A05D058F8040B0021F8
:102CC000032A08D008E008F1070020F00702F2E824
:102CD0000201904603E080B2042A00D1C0B24FF056
:102CE000000922072AD53278702A07D0DDF800C003
:102CF0008CF0100C5CEA0B0C05D00EE040228DF835
:102D00000420012208E050EA010306D030238DF8A8
:102D100004308DF8052002229146009B83F00803C1
:102D200053EA0B030AD150EA010201D1620705D52B
:102D300030228DF804204FF001097F1E3278582A86
:102D400004D039A20C920CAA02920BE03BA2F9E744
:102D50005B46009AFDF738FA0C9B9B5C029A521E68
:102D60000292137050EA0102F2D1029804A9081AE3
:102D700000F1200B600702D524F4803400E0012725
:102D80005F4502DDA7EB0B0000E0002000EB0B012C
:102D9000009003984944401A0390E00306D4534638
:102DA0002146179A039800F0ACF90544002706E085
:102DB00001A85246C05D179990476D1C7F1C4F4576
:102DC000F6DBE0030CD553462146179A039800F032
:102DD00098F9054404E030205246179990476D1C3D
:102DE0000099481E00900029F5DC08E0029802993D
:102DF00052460078491C0291179990476D1CBBF10F
:102E00000001ABF1010BF1DC5BE100F068F9054476
:102E1000761C307800287FF40DAE19B0284600F0FB
:102E20005BB90000092801003031323334353637C0
:102E30003839616263646566000000003031323306
:102E400034353637383941424344454600000000A6
:102E5000600700D4062708F1070020F00700F0E81B
:102E60000223804603F0004C5FEA0C0001D097A0DB
:102E700009E0200501D596A005E0E00701D095A066
:102E800001E0AFF24C001390307823F00043652846
:102E90000CD006DC452809D046281DD047287FD114
:102EA0003BE0662818D067287AD136E00021112F40
:102EB00001DB112000E0781CCDE9000104A90CA879
:102EC000FFF7EAFCDDE90D010C9A4FF0000B07F16A
:102ED0000109109200914EE04FF000400097CDE9BB
:102EE000011004A90CA8FFF7D7FCDDE90D020C9B2B
:102EF0000F994FF0000B91461093009211B9791C75
:102F000000EB0109B7EB090003D4C0F1FF3B07F167
:102F10000109A9EB0700019042E0012F00DA012727
:102F20000021112F01DD112000E03846CDE900011C
:102F300004A90CA8FFF7B0FCDDE90D010C9A009183
:102F40004FF0000BB946109221070FD4009A4A4562
:102F500003DA914601E0A9F10109B9F1010F05DD9C
:102F6000109AA9F10101515C3029F4D0B84202DA7B
:102F700010F1040F03DA0121CDE9011010E000285F
:102F800003DC8344A9EB000102E0411C494500DD5C
:102F90008946A0EB0B00401C01904FF000400290CE
:102FA000200705D40198484502DB4FF0FF3001901F
:102FB00000208DF84B0002980DF14B07B0F1004F47
:102FC00025D002200C902B200D90029800280CDABE
:102FD000404202902D200D9007E00A210298FDF753
:102FE00039F93031029007F8011D0C99481E0C90F8
:102FF0000029F2DC02980028EFD1791E0D980870A4
:10300000307800F0200040F0450007F8020D11A8CC
:10301000C01BC01D02901398007800B1012000EB86
:103020000901019801EBE071029801440398401AEC
:10303000401E0390E00306D453462146179A039896
:1030400000F05FF805441398007818B152461799BC
:1030500090476D1CE00323D553462146179A0398E9
:1030600000F04FF805441BE0BBF1000F07DB0098B0
:10307000584504DD1098179910F80B0001E01799D6
:1030800030205246904701980BF1010B401E05F18C
:103090000105019004D12E205246179990476D1CCE
:1030A000B9F10001A9F10109DEDC05E017F8010B17
:1030B0005246179990476D1C0299481E02900029AC
:1030C000F4DC53462146179A03989EE62D00000033
:1030D0002B0000002000000030BCBDE8C08F2DE9AF
:1030E000F041044600251E461746880404D405E036
:1030F00039462020B0476D1C641EF9D52846BDE82E
:10310000F0812DE9F041044600251E469046C80393
:1031100001D5302700E02027880404D505E041468A
:103120003846B0476D1C641EF9D52846BDE8F081CD
:1031300013B54FF6FF73012269460248FEF71EFEE3
:1031400000981CBD30040020FDF76CFCFFF767F809
:10315000FEF770FE41F63F716320FEF7BFFE4FF4AD
:10316000E130FEF7DDFEFEF711FFFEF79BFE0DA03E
:10317000FFF762FB0D4F0E4C0E4D00260120FDF7B0
:1031800037FB20880004F9D52088C0F30E01002009
:1031900003E03A5C2A54401C80B28842F9D326806E
:1031A0002E54EBE7696E69740D0A0000B804002024
:1031B00000000020180000200000000000000000B7
:1031C0000102030406070809A0860100400D030060
:1031D000801A060000350C0040420F0080841E005B
:1031E00000093D0000127A000024F40000366E0150
:1031F0000048E801006CDC0200000000010203044A
:103200002032000800000020180000007828000884
:103210003832000818000020300A00008828000812
:10322000000000000100000010000000000000008D
:0832300000093D000000000050
:040000050800018D61
:00000001FF
